{
  "_format": "hh-sol-artifact-1",
  "contractName": "fundrasingContract",
  "sourceName": "contracts/fundraising.sol",
  "abi": [
    {
      "inputs": [],
      "stateMutability": "nonpayable",
      "type": "constructor"
    },
    {
      "inputs": [],
      "name": "getTotalfunds",
      "outputs": [
        {
          "internalType": "uint256",
          "name": "",
          "type": "uint256"
        }
      ],
      "stateMutability": "view",
      "type": "function"
    },
    {
      "inputs": [],
      "name": "projectname",
      "outputs": [
        {
          "internalType": "string",
          "name": "",
          "type": "string"
        }
      ],
      "stateMutability": "view",
      "type": "function"
    },
    {
      "inputs": [],
      "name": "raisefund",
      "outputs": [],
      "stateMutability": "payable",
      "type": "function"
    },
    {
      "inputs": [
        {
          "internalType": "string",
          "name": "_name",
          "type": "string"
        }
      ],
      "name": "setprojectname",
      "outputs": [],
      "stateMutability": "nonpayable",
      "type": "function"
    }
  ],
  "bytecode": "0x608060405234801561001057600080fd5b50336000806101000a81548173ffffffffffffffffffffffffffffffffffffffff021916908373ffffffffffffffffffffffffffffffffffffffff160217905550610812806100606000396000f3fe60806040526004361061003f5760003560e01c806322888c5c14610044578063313ed32c1461006f578063340be6e9146100795780637e876dd6146100a2575b600080fd5b34801561005057600080fd5b506100596100cd565b6040516100669190610597565b60405180910390f35b61007761010d565b005b34801561008557600080fd5b506100a0600480360381019061009b9190610426565b6101dd565b005b3480156100ae57600080fd5b506100b7610285565b6040516100c49190610535565b60405180910390f35b60008060009054906101000a900473ffffffffffffffffffffffffffffffffffffffff1673ffffffffffffffffffffffffffffffffffffffff1631905090565b60008060009054906101000a900473ffffffffffffffffffffffffffffffffffffffff1673ffffffffffffffffffffffffffffffffffffffff163460405161015490610520565b60006040518083038185875af1925050503d8060008114610191576040519150601f19603f3d011682016040523d82523d6000602084013e610196565b606091505b50509050806101da576040517f08c379a00000000000000000000000000000000000000000000000000000000081526004016101d190610557565b60405180910390fd5b50565b60008054906101000a900473ffffffffffffffffffffffffffffffffffffffff1673ffffffffffffffffffffffffffffffffffffffff163373ffffffffffffffffffffffffffffffffffffffff161461026b576040517f08c379a000000000000000000000000000000000000000000000000000000000815260040161026290610577565b60405180910390fd5b8060019080519060200190610281929190610313565b5050565b600180546102929061067b565b80601f01602080910402602001604051908101604052809291908181526020018280546102be9061067b565b801561030b5780601f106102e05761010080835404028352916020019161030b565b820191906000526020600020905b8154815290600101906020018083116102ee57829003601f168201915b505050505081565b82805461031f9061067b565b90600052602060002090601f0160209004810192826103415760008555610388565b82601f1061035a57805160ff1916838001178555610388565b82800160010185558215610388579182015b8281111561038757825182559160200191906001019061036c565b5b5090506103959190610399565b5090565b5b808211156103b257600081600090555060010161039a565b5090565b60006103c96103c4846105d7565b6105b2565b9050828152602081018484840111156103e5576103e4610741565b5b6103f0848285610639565b509392505050565b600082601f83011261040d5761040c61073c565b5b813561041d8482602086016103b6565b91505092915050565b60006020828403121561043c5761043b61074b565b5b600082013567ffffffffffffffff81111561045a57610459610746565b5b610466848285016103f8565b91505092915050565b600061047a82610608565b610484818561061e565b9350610494818560208601610648565b61049d81610750565b840191505092915050565b60006104b560148361061e565b91506104c082610761565b602082019050919050565b60006104d860348361061e565b91506104e38261078a565b604082019050919050565b60006104fb600083610613565b9150610506826107d9565b600082019050919050565b61051a8161062f565b82525050565b600061052b826104ee565b9150819050919050565b6000602082019050818103600083015261054f818461046f565b905092915050565b60006020820190508181036000830152610570816104a8565b9050919050565b60006020820190508181036000830152610590816104cb565b9050919050565b60006020820190506105ac6000830184610511565b92915050565b60006105bc6105cd565b90506105c882826106ad565b919050565b6000604051905090565b600067ffffffffffffffff8211156105f2576105f161070d565b5b6105fb82610750565b9050602081019050919050565b600081519050919050565b600081905092915050565b600082825260208201905092915050565b6000819050919050565b82818337600083830152505050565b60005b8381101561066657808201518184015260208101905061064b565b83811115610675576000848401525b50505050565b6000600282049050600182168061069357607f821691505b602082108114156106a7576106a66106de565b5b50919050565b6106b682610750565b810181811067ffffffffffffffff821117156106d5576106d461070d565b5b80604052505050565b7f4e487b7100000000000000000000000000000000000000000000000000000000600052602260045260246000fd5b7f4e487b7100000000000000000000000000000000000000000000000000000000600052604160045260246000fd5b600080fd5b600080fd5b600080fd5b600080fd5b6000601f19601f8301169050919050565b7f4661696c656420746f2073656e64206d6f6e6579000000000000000000000000600082015250565b7f596f75206d75737420626520746865206f776e657220746f207365742074686560008201527f206e616d65206f66207468652070726f6a656374000000000000000000000000602082015250565b5056fea2646970667358221220759c858d659eec0b8a3dfc18f66a60d879e5f7e67f66e1a8c2ce4805ad18686564736f6c63430008070033",
  "linkReferences": {},
  "deployedLinkReferences": {}
}